{
  "_format": "hh-sol-artifact-1",
  "contractName": "AddyNFTContract",
  "sourceName": "contracts/AddyNFTContract.sol",
  "abi": [
    {
      "inputs": [
        {
          "internalType": "string",
          "name": "_name",
          "type": "string"
        },
        {
          "internalType": "string",
          "name": "_symbol",
          "type": "string"
        }
      ],
      "stateMutability": "nonpayable",
      "type": "constructor"
    },
    {
      "inputs": [
        {
          "internalType": "address",
          "name": "sender",
          "type": "address"
        },
        {
          "internalType": "uint256",
          "name": "tokenId",
          "type": "uint256"
        },
        {
          "internalType": "address",
          "name": "owner",
          "type": "address"
        }
      ],
      "name": "ERC721IncorrectOwner",
      "type": "error"
    },
    {
      "inputs": [
        {
          "internalType": "address",
          "name": "operator",
          "type": "address"
        },
        {
          "internalType": "uint256",
          "name": "tokenId",
          "type": "uint256"
        }
      ],
      "name": "ERC721InsufficientApproval",
      "type": "error"
    },
    {
      "inputs": [
        {
          "internalType": "address",
          "name": "approver",
          "type": "address"
        }
      ],
      "name": "ERC721InvalidApprover",
      "type": "error"
    },
    {
      "inputs": [
        {
          "internalType": "address",
          "name": "operator",
          "type": "address"
        }
      ],
      "name": "ERC721InvalidOperator",
      "type": "error"
    },
    {
      "inputs": [
        {
          "internalType": "address",
          "name": "owner",
          "type": "address"
        }
      ],
      "name": "ERC721InvalidOwner",
      "type": "error"
    },
    {
      "inputs": [
        {
          "internalType": "address",
          "name": "receiver",
          "type": "address"
        }
      ],
      "name": "ERC721InvalidReceiver",
      "type": "error"
    },
    {
      "inputs": [
        {
          "internalType": "address",
          "name": "sender",
          "type": "address"
        }
      ],
      "name": "ERC721InvalidSender",
      "type": "error"
    },
    {
      "inputs": [
        {
          "internalType": "uint256",
          "name": "tokenId",
          "type": "uint256"
        }
      ],
      "name": "ERC721NonexistentToken",
      "type": "error"
    },
    {
      "inputs": [
        {
          "internalType": "address",
          "name": "owner",
          "type": "address"
        }
      ],
      "name": "OwnableInvalidOwner",
      "type": "error"
    },
    {
      "inputs": [
        {
          "internalType": "address",
          "name": "account",
          "type": "address"
        }
      ],
      "name": "OwnableUnauthorizedAccount",
      "type": "error"
    },
    {
      "anonymous": false,
      "inputs": [
        {
          "indexed": true,
          "internalType": "address",
          "name": "owner",
          "type": "address"
        },
        {
          "indexed": true,
          "internalType": "address",
          "name": "approved",
          "type": "address"
        },
        {
          "indexed": true,
          "internalType": "uint256",
          "name": "tokenId",
          "type": "uint256"
        }
      ],
      "name": "Approval",
      "type": "event"
    },
    {
      "anonymous": false,
      "inputs": [
        {
          "indexed": true,
          "internalType": "address",
          "name": "owner",
          "type": "address"
        },
        {
          "indexed": true,
          "internalType": "address",
          "name": "operator",
          "type": "address"
        },
        {
          "indexed": false,
          "internalType": "bool",
          "name": "approved",
          "type": "bool"
        }
      ],
      "name": "ApprovalForAll",
      "type": "event"
    },
    {
      "anonymous": false,
      "inputs": [
        {
          "indexed": false,
          "internalType": "uint256",
          "name": "_fromTokenId",
          "type": "uint256"
        },
        {
          "indexed": false,
          "internalType": "uint256",
          "name": "_toTokenId",
          "type": "uint256"
        }
      ],
      "name": "BatchMetadataUpdate",
      "type": "event"
    },
    {
      "anonymous": false,
      "inputs": [
        {
          "indexed": false,
          "internalType": "uint256",
          "name": "_tokenId",
          "type": "uint256"
        }
      ],
      "name": "MetadataUpdate",
      "type": "event"
    },
    {
      "anonymous": false,
      "inputs": [
        {
          "indexed": true,
          "internalType": "address",
          "name": "previousOwner",
          "type": "address"
        },
        {
          "indexed": true,
          "internalType": "address",
          "name": "newOwner",
          "type": "address"
        }
      ],
      "name": "OwnershipTransferred",
      "type": "event"
    },
    {
      "anonymous": false,
      "inputs": [
        {
          "indexed": true,
          "internalType": "address",
          "name": "from",
          "type": "address"
        },
        {
          "indexed": true,
          "internalType": "address",
          "name": "to",
          "type": "address"
        },
        {
          "indexed": true,
          "internalType": "uint256",
          "name": "tokenId",
          "type": "uint256"
        }
      ],
      "name": "Transfer",
      "type": "event"
    },
    {
      "inputs": [],
      "name": "MINT_PRICE",
      "outputs": [
        {
          "internalType": "uint256",
          "name": "",
          "type": "uint256"
        }
      ],
      "stateMutability": "view",
      "type": "function"
    },
    {
      "inputs": [
        {
          "internalType": "address",
          "name": "to",
          "type": "address"
        },
        {
          "internalType": "uint256",
          "name": "tokenId",
          "type": "uint256"
        }
      ],
      "name": "approve",
      "outputs": [],
      "stateMutability": "nonpayable",
      "type": "function"
    },
    {
      "inputs": [
        {
          "internalType": "address",
          "name": "owner",
          "type": "address"
        }
      ],
      "name": "balanceOf",
      "outputs": [
        {
          "internalType": "uint256",
          "name": "",
          "type": "uint256"
        }
      ],
      "stateMutability": "view",
      "type": "function"
    },
    {
      "inputs": [
        {
          "internalType": "uint256",
          "name": "tokenId",
          "type": "uint256"
        }
      ],
      "name": "getApproved",
      "outputs": [
        {
          "internalType": "address",
          "name": "",
          "type": "address"
        }
      ],
      "stateMutability": "view",
      "type": "function"
    },
    {
      "inputs": [
        {
          "internalType": "address",
          "name": "owner",
          "type": "address"
        },
        {
          "internalType": "address",
          "name": "operator",
          "type": "address"
        }
      ],
      "name": "isApprovedForAll",
      "outputs": [
        {
          "internalType": "bool",
          "name": "",
          "type": "bool"
        }
      ],
      "stateMutability": "view",
      "type": "function"
    },
    {
      "inputs": [
        {
          "internalType": "address",
          "name": "to",
          "type": "address"
        },
        {
          "internalType": "string",
          "name": "uri",
          "type": "string"
        }
      ],
      "name": "mint",
      "outputs": [],
      "stateMutability": "payable",
      "type": "function"
    },
    {
      "inputs": [],
      "name": "name",
      "outputs": [
        {
          "internalType": "string",
          "name": "",
          "type": "string"
        }
      ],
      "stateMutability": "view",
      "type": "function"
    },
    {
      "inputs": [],
      "name": "owner",
      "outputs": [
        {
          "internalType": "address",
          "name": "",
          "type": "address"
        }
      ],
      "stateMutability": "view",
      "type": "function"
    },
    {
      "inputs": [
        {
          "internalType": "uint256",
          "name": "tokenId",
          "type": "uint256"
        }
      ],
      "name": "ownerOf",
      "outputs": [
        {
          "internalType": "address",
          "name": "",
          "type": "address"
        }
      ],
      "stateMutability": "view",
      "type": "function"
    },
    {
      "inputs": [],
      "name": "renounceOwnership",
      "outputs": [],
      "stateMutability": "nonpayable",
      "type": "function"
    },
    {
      "inputs": [
        {
          "internalType": "address",
          "name": "from",
          "type": "address"
        },
        {
          "internalType": "address",
          "name": "to",
          "type": "address"
        },
        {
          "internalType": "uint256",
          "name": "tokenId",
          "type": "uint256"
        }
      ],
      "name": "safeTransferFrom",
      "outputs": [],
      "stateMutability": "nonpayable",
      "type": "function"
    },
    {
      "inputs": [
        {
          "internalType": "address",
          "name": "from",
          "type": "address"
        },
        {
          "internalType": "address",
          "name": "to",
          "type": "address"
        },
        {
          "internalType": "uint256",
          "name": "tokenId",
          "type": "uint256"
        },
        {
          "internalType": "bytes",
          "name": "data",
          "type": "bytes"
        }
      ],
      "name": "safeTransferFrom",
      "outputs": [],
      "stateMutability": "nonpayable",
      "type": "function"
    },
    {
      "inputs": [
        {
          "internalType": "address",
          "name": "operator",
          "type": "address"
        },
        {
          "internalType": "bool",
          "name": "approved",
          "type": "bool"
        }
      ],
      "name": "setApprovalForAll",
      "outputs": [],
      "stateMutability": "nonpayable",
      "type": "function"
    },
    {
      "inputs": [
        {
          "internalType": "bytes4",
          "name": "interfaceId",
          "type": "bytes4"
        }
      ],
      "name": "supportsInterface",
      "outputs": [
        {
          "internalType": "bool",
          "name": "",
          "type": "bool"
        }
      ],
      "stateMutability": "view",
      "type": "function"
    },
    {
      "inputs": [],
      "name": "symbol",
      "outputs": [
        {
          "internalType": "string",
          "name": "",
          "type": "string"
        }
      ],
      "stateMutability": "view",
      "type": "function"
    },
    {
      "inputs": [
        {
          "internalType": "uint256",
          "name": "tokenId",
          "type": "uint256"
        }
      ],
      "name": "tokenURI",
      "outputs": [
        {
          "internalType": "string",
          "name": "",
          "type": "string"
        }
      ],
      "stateMutability": "view",
      "type": "function"
    },
    {
      "inputs": [
        {
          "internalType": "address",
          "name": "from",
          "type": "address"
        },
        {
          "internalType": "address",
          "name": "to",
          "type": "address"
        },
        {
          "internalType": "uint256",
          "name": "tokenId",
          "type": "uint256"
        }
      ],
      "name": "transferFrom",
      "outputs": [],
      "stateMutability": "nonpayable",
      "type": "function"
    },
    {
      "inputs": [
        {
          "internalType": "address",
          "name": "newOwner",
          "type": "address"
        }
      ],
      "name": "transferOwnership",
      "outputs": [],
      "stateMutability": "nonpayable",
      "type": "function"
    },
    {
      "inputs": [],
      "name": "withdraw",
      "outputs": [],
      "stateMutability": "nonpayable",
      "type": "function"
    }
  ],
  "bytecode": "0x60806040523480156200001157600080fd5b506040516200303938038062003039833981810160405281019062000037919062000348565b33828281600090816200004b919062000618565b5080600190816200005d919062000618565b505050600073ffffffffffffffffffffffffffffffffffffffff168173ffffffffffffffffffffffffffffffffffffffff1603620000d55760006040517f1e4fbdf7000000000000000000000000000000000000000000000000000000008152600401620000cc919062000744565b60405180910390fd5b620000e681620000ef60201b60201c565b50505062000761565b6000600760009054906101000a900473ffffffffffffffffffffffffffffffffffffffff16905081600760006101000a81548173ffffffffffffffffffffffffffffffffffffffff021916908373ffffffffffffffffffffffffffffffffffffffff1602179055508173ffffffffffffffffffffffffffffffffffffffff168173ffffffffffffffffffffffffffffffffffffffff167f8be0079c531659141344cd1fd0a4f28419497f9722a3daafe3b4186f6b6457e060405160405180910390a35050565b6000604051905090565b600080fd5b600080fd5b600080fd5b600080fd5b6000601f19601f8301169050919050565b7f4e487b7100000000000000000000000000000000000000000000000000000000600052604160045260246000fd5b6200021e82620001d3565b810181811067ffffffffffffffff8211171562000240576200023f620001e4565b5b80604052505050565b600062000255620001b5565b905062000263828262000213565b919050565b600067ffffffffffffffff821115620002865762000285620001e4565b5b6200029182620001d3565b9050602081019050919050565b60005b83811015620002be578082015181840152602081019050620002a1565b60008484015250505050565b6000620002e1620002db8462000268565b62000249565b9050828152602081018484840111156200030057620002ff620001ce565b5b6200030d8482856200029e565b509392505050565b600082601f8301126200032d576200032c620001c9565b5b81516200033f848260208601620002ca565b91505092915050565b60008060408385031215620003625762000361620001bf565b5b600083015167ffffffffffffffff811115620003835762000382620001c4565b5b620003918582860162000315565b925050602083015167ffffffffffffffff811115620003b557620003b4620001c4565b5b620003c38582860162000315565b9150509250929050565b600081519050919050565b7f4e487b7100000000000000000000000000000000000000000000000000000000600052602260045260246000fd5b600060028204905060018216806200042057607f821691505b602082108103620004365762000435620003d8565b5b50919050565b60008190508160005260206000209050919050565b60006020601f8301049050919050565b600082821b905092915050565b600060088302620004a07fffffffffffffffffffffffffffffffffffffffffffffffffffffffffffffffff8262000461565b620004ac868362000461565b95508019841693508086168417925050509392505050565b6000819050919050565b6000819050919050565b6000620004f9620004f3620004ed84620004c4565b620004ce565b620004c4565b9050919050565b6000819050919050565b6200051583620004d8565b6200052d620005248262000500565b8484546200046e565b825550505050565b600090565b6200054462000535565b620005518184846200050a565b505050565b5b8181101562000579576200056d6000826200053a565b60018101905062000557565b5050565b601f821115620005c85762000592816200043c565b6200059d8462000451565b81016020851015620005ad578190505b620005c5620005bc8562000451565b83018262000556565b50505b505050565b600082821c905092915050565b6000620005ed60001984600802620005cd565b1980831691505092915050565b6000620006088383620005da565b9150826002028217905092915050565b6200062382620003cd565b67ffffffffffffffff8111156200063f576200063e620001e4565b5b6200064b825462000407565b620006588282856200057d565b600060209050601f8311600181146200069057600084156200067b578287015190505b620006878582620005fa565b865550620006f7565b601f198416620006a0866200043c565b60005b82811015620006ca57848901518255600182019150602085019450602081019050620006a3565b86831015620006ea5784890151620006e6601f891682620005da565b8355505b6001600288020188555050505b505050505050565b600073ffffffffffffffffffffffffffffffffffffffff82169050919050565b60006200072c82620006ff565b9050919050565b6200073e816200071f565b82525050565b60006020820190506200075b600083018462000733565b92915050565b6128c880620007716000396000f3fe6080604052600436106101145760003560e01c8063715018a6116100a0578063c002d23d11610064578063c002d23d14610389578063c87b56dd146103b4578063d0def521146103f1578063e985e9c51461040d578063f2fde38b1461044a57610114565b8063715018a6146102ca5780638da5cb5b146102e157806395d89b411461030c578063a22cb46514610337578063b88d4fde1461036057610114565b806323b872dd116100e757806323b872dd146101e75780633ccfd60b1461021057806342842e0e146102275780636352211e1461025057806370a082311461028d57610114565b806301ffc9a71461011957806306fdde0314610156578063081812fc14610181578063095ea7b3146101be575b600080fd5b34801561012557600080fd5b50610140600480360381019061013b9190611cb4565b610473565b60405161014d9190611cfc565b60405180910390f35b34801561016257600080fd5b5061016b610485565b6040516101789190611da7565b60405180910390f35b34801561018d57600080fd5b506101a860048036038101906101a39190611dff565b610517565b6040516101b59190611e6d565b60405180910390f35b3480156101ca57600080fd5b506101e560048036038101906101e09190611eb4565b610533565b005b3480156101f357600080fd5b5061020e60048036038101906102099190611ef4565b610549565b005b34801561021c57600080fd5b5061022561064b565b005b34801561023357600080fd5b5061024e60048036038101906102499190611ef4565b6106a9565b005b34801561025c57600080fd5b5061027760048036038101906102729190611dff565b6106c9565b6040516102849190611e6d565b60405180910390f35b34801561029957600080fd5b506102b460048036038101906102af9190611f47565b6106db565b6040516102c19190611f83565b60405180910390f35b3480156102d657600080fd5b506102df610795565b005b3480156102ed57600080fd5b506102f66107a9565b6040516103039190611e6d565b60405180910390f35b34801561031857600080fd5b506103216107d3565b60405161032e9190611da7565b60405180910390f35b34801561034357600080fd5b5061035e60048036038101906103599190611fca565b610865565b005b34801561036c57600080fd5b506103876004803603810190610382919061213f565b61087b565b005b34801561039557600080fd5b5061039e6108a0565b6040516103ab9190611f83565b60405180910390f35b3480156103c057600080fd5b506103db60048036038101906103d69190611dff565b6108ac565b6040516103e89190611da7565b60405180910390f35b61040b60048036038101906104069190612263565b6108be565b005b34801561041957600080fd5b50610434600480360381019061042f91906122bf565b610949565b6040516104419190611cfc565b60405180910390f35b34801561045657600080fd5b50610471600480360381019061046c9190611f47565b6109dd565b005b600061047e82610a63565b9050919050565b6060600080546104949061232e565b80601f01602080910402602001604051908101604052809291908181526020018280546104c09061232e565b801561050d5780601f106104e25761010080835404028352916020019161050d565b820191906000526020600020905b8154815290600101906020018083116104f057829003601f168201915b5050505050905090565b600061052282610ac4565b5061052c82610b4c565b9050919050565b6105458282610540610b89565b610b91565b5050565b600073ffffffffffffffffffffffffffffffffffffffff168273ffffffffffffffffffffffffffffffffffffffff16036105bb5760006040517f64a0ae920000000000000000000000000000000000000000000000000000000081526004016105b29190611e6d565b60405180910390fd5b60006105cf83836105ca610b89565b610ba3565b90508373ffffffffffffffffffffffffffffffffffffffff168173ffffffffffffffffffffffffffffffffffffffff1614610645578382826040517f64283d7b00000000000000000000000000000000000000000000000000000000815260040161063c9392919061235f565b60405180910390fd5b50505050565b610653610dbd565b60004790506106606107a9565b73ffffffffffffffffffffffffffffffffffffffff166108fc829081150290604051600060405180830381858888f193505050501580156106a5573d6000803e3d6000fd5b5050565b6106c48383836040518060200160405280600081525061087b565b505050565b60006106d482610ac4565b9050919050565b60008073ffffffffffffffffffffffffffffffffffffffff168273ffffffffffffffffffffffffffffffffffffffff160361074e5760006040517f89c62b640000000000000000000000000000000000000000000000000000000081526004016107459190611e6d565b60405180910390fd5b600360008373ffffffffffffffffffffffffffffffffffffffff1673ffffffffffffffffffffffffffffffffffffffff168152602001908152602001600020549050919050565b61079d610dbd565b6107a76000610e44565b565b6000600760009054906101000a900473ffffffffffffffffffffffffffffffffffffffff16905090565b6060600180546107e29061232e565b80601f016020809104026020016040519081016040528092919081815260200182805461080e9061232e565b801561085b5780601f106108305761010080835404028352916020019161085b565b820191906000526020600020905b81548152906001019060200180831161083e57829003601f168201915b5050505050905090565b610877610870610b89565b8383610f0a565b5050565b610886848484610549565b61089a610891610b89565b85858585611079565b50505050565b670de0b6b3a764000081565b60606108b78261122a565b9050919050565b6000600854111561091557670de0b6b3a7640000341015610914576040517f08c379a000000000000000000000000000000000000000000000000000000000815260040161090b906123e2565b60405180910390fd5b5b60006008600081548092919061092a90612431565b91905055905061093a838261133d565b610944818361135b565b505050565b6000600560008473ffffffffffffffffffffffffffffffffffffffff1673ffffffffffffffffffffffffffffffffffffffff16815260200190815260200160002060008373ffffffffffffffffffffffffffffffffffffffff1673ffffffffffffffffffffffffffffffffffffffff16815260200190815260200160002060009054906101000a900460ff16905092915050565b6109e5610dbd565b600073ffffffffffffffffffffffffffffffffffffffff168173ffffffffffffffffffffffffffffffffffffffff1603610a575760006040517f1e4fbdf7000000000000000000000000000000000000000000000000000000008152600401610a4e9190611e6d565b60405180910390fd5b610a6081610e44565b50565b6000634906490660e01b7bffffffffffffffffffffffffffffffffffffffffffffffffffffffff1916827bffffffffffffffffffffffffffffffffffffffffffffffffffffffff19161480610abd5750610abc826113b7565b5b9050919050565b600080610ad083611499565b9050600073ffffffffffffffffffffffffffffffffffffffff168173ffffffffffffffffffffffffffffffffffffffff1603610b4357826040517f7e273289000000000000000000000000000000000000000000000000000000008152600401610b3a9190611f83565b60405180910390fd5b80915050919050565b60006004600083815260200190815260200160002060009054906101000a900473ffffffffffffffffffffffffffffffffffffffff169050919050565b600033905090565b610b9e83838360016114d6565b505050565b600080610baf84611499565b9050600073ffffffffffffffffffffffffffffffffffffffff168373ffffffffffffffffffffffffffffffffffffffff1614610bf157610bf081848661169b565b5b600073ffffffffffffffffffffffffffffffffffffffff168173ffffffffffffffffffffffffffffffffffffffff1614610c8257610c336000856000806114d6565b6001600360008373ffffffffffffffffffffffffffffffffffffffff1673ffffffffffffffffffffffffffffffffffffffff168152602001908152602001600020600082825403925050819055505b600073ffffffffffffffffffffffffffffffffffffffff168573ffffffffffffffffffffffffffffffffffffffff1614610d05576001600360008773ffffffffffffffffffffffffffffffffffffffff1673ffffffffffffffffffffffffffffffffffffffff168152602001908152602001600020600082825401925050819055505b846002600086815260200190815260200160002060006101000a81548173ffffffffffffffffffffffffffffffffffffffff021916908373ffffffffffffffffffffffffffffffffffffffff160217905550838573ffffffffffffffffffffffffffffffffffffffff168273ffffffffffffffffffffffffffffffffffffffff167fddf252ad1be2c89b69c2b068fc378daa952ba7f163c4a11628f55a4df523b3ef60405160405180910390a4809150509392505050565b610dc5610b89565b73ffffffffffffffffffffffffffffffffffffffff16610de36107a9565b73ffffffffffffffffffffffffffffffffffffffff1614610e4257610e06610b89565b6040517f118cdaa7000000000000000000000000000000000000000000000000000000008152600401610e399190611e6d565b60405180910390fd5b565b6000600760009054906101000a900473ffffffffffffffffffffffffffffffffffffffff16905081600760006101000a81548173ffffffffffffffffffffffffffffffffffffffff021916908373ffffffffffffffffffffffffffffffffffffffff1602179055508173ffffffffffffffffffffffffffffffffffffffff168173ffffffffffffffffffffffffffffffffffffffff167f8be0079c531659141344cd1fd0a4f28419497f9722a3daafe3b4186f6b6457e060405160405180910390a35050565b600073ffffffffffffffffffffffffffffffffffffffff168273ffffffffffffffffffffffffffffffffffffffff1603610f7b57816040517f5b08ba18000000000000000000000000000000000000000000000000000000008152600401610f729190611e6d565b60405180910390fd5b80600560008573ffffffffffffffffffffffffffffffffffffffff1673ffffffffffffffffffffffffffffffffffffffff16815260200190815260200160002060008473ffffffffffffffffffffffffffffffffffffffff1673ffffffffffffffffffffffffffffffffffffffff16815260200190815260200160002060006101000a81548160ff0219169083151502179055508173ffffffffffffffffffffffffffffffffffffffff168373ffffffffffffffffffffffffffffffffffffffff167f17307eab39ab6107e8899845ad3d59bd9653f200f220920489ca2b5937696c318360405161106c9190611cfc565b60405180910390a3505050565b60008373ffffffffffffffffffffffffffffffffffffffff163b1115611223578273ffffffffffffffffffffffffffffffffffffffff1663150b7a02868685856040518563ffffffff1660e01b81526004016110d894939291906124ce565b6020604051808303816000875af192505050801561111457506040513d601f19601f82011682018060405250810190611111919061252f565b60015b611198573d8060008114611144576040519150601f19603f3d011682016040523d82523d6000602084013e611149565b606091505b50600081510361119057836040517f64a0ae920000000000000000000000000000000000000000000000000000000081526004016111879190611e6d565b60405180910390fd5b805181602001fd5b63150b7a0260e01b7bffffffffffffffffffffffffffffffffffffffffffffffffffffffff1916817bffffffffffffffffffffffffffffffffffffffffffffffffffffffff19161461122157836040517f64a0ae920000000000000000000000000000000000000000000000000000000081526004016112189190611e6d565b60405180910390fd5b505b5050505050565b606061123582610ac4565b5060006006600084815260200190815260200160002080546112569061232e565b80601f01602080910402602001604051908101604052809291908181526020018280546112829061232e565b80156112cf5780601f106112a4576101008083540402835291602001916112cf565b820191906000526020600020905b8154815290600101906020018083116112b257829003601f168201915b5050505050905060006112e061175f565b905060008151036112f5578192505050611338565b60008251111561132a578082604051602001611312929190612598565b60405160208183030381529060405292505050611338565b61133384611776565b925050505b919050565b6113578282604051806020016040528060008152506117df565b5050565b8060066000848152602001908152602001600020908161137b9190612768565b507ff8e1a15aba9398e019f0b49df1a4fde98ee17ae345cb5f6b5e2c27f5033e8ce7826040516113ab9190611f83565b60405180910390a15050565b60007f80ac58cd000000000000000000000000000000000000000000000000000000007bffffffffffffffffffffffffffffffffffffffffffffffffffffffff1916827bffffffffffffffffffffffffffffffffffffffffffffffffffffffff1916148061148257507f5b5e139f000000000000000000000000000000000000000000000000000000007bffffffffffffffffffffffffffffffffffffffffffffffffffffffff1916827bffffffffffffffffffffffffffffffffffffffffffffffffffffffff1916145b80611492575061149182611803565b5b9050919050565b60006002600083815260200190815260200160002060009054906101000a900473ffffffffffffffffffffffffffffffffffffffff169050919050565b808061150f5750600073ffffffffffffffffffffffffffffffffffffffff168273ffffffffffffffffffffffffffffffffffffffff1614155b1561164357600061151f84610ac4565b9050600073ffffffffffffffffffffffffffffffffffffffff168373ffffffffffffffffffffffffffffffffffffffff161415801561158a57508273ffffffffffffffffffffffffffffffffffffffff168173ffffffffffffffffffffffffffffffffffffffff1614155b801561159d575061159b8184610949565b155b156115df57826040517fa9fbf51f0000000000000000000000000000000000000000000000000000000081526004016115d69190611e6d565b60405180910390fd5b811561164157838573ffffffffffffffffffffffffffffffffffffffff168273ffffffffffffffffffffffffffffffffffffffff167f8c5be1e5ebec7d5bd14f71427d1e84f3dd0314c0f7b2291e5b200ac8c7c3b92560405160405180910390a45b505b836004600085815260200190815260200160002060006101000a81548173ffffffffffffffffffffffffffffffffffffffff021916908373ffffffffffffffffffffffffffffffffffffffff16021790555050505050565b6116a683838361186d565b61175a57600073ffffffffffffffffffffffffffffffffffffffff168373ffffffffffffffffffffffffffffffffffffffff160361171b57806040517f7e2732890000000000000000000000000000000000000000000000000000000081526004016117129190611f83565b60405180910390fd5b81816040517f177e802f00000000000000000000000000000000000000000000000000000000815260040161175192919061283a565b60405180910390fd5b505050565b606060405180602001604052806000815250905090565b606061178182610ac4565b50600061178c61175f565b905060008151116117ac57604051806020016040528060008152506117d7565b806117b68461192e565b6040516020016117c7929190612598565b6040516020818303038152906040525b915050919050565b6117e983836119fc565b6117fe6117f4610b89565b6000858585611079565b505050565b60007f01ffc9a7000000000000000000000000000000000000000000000000000000007bffffffffffffffffffffffffffffffffffffffffffffffffffffffff1916827bffffffffffffffffffffffffffffffffffffffffffffffffffffffff1916149050919050565b60008073ffffffffffffffffffffffffffffffffffffffff168373ffffffffffffffffffffffffffffffffffffffff161415801561192557508273ffffffffffffffffffffffffffffffffffffffff168473ffffffffffffffffffffffffffffffffffffffff1614806118e657506118e58484610949565b5b8061192457508273ffffffffffffffffffffffffffffffffffffffff1661190c83610b4c565b73ffffffffffffffffffffffffffffffffffffffff16145b5b90509392505050565b60606000600161193d84611af5565b01905060008167ffffffffffffffff81111561195c5761195b612014565b5b6040519080825280601f01601f19166020018201604052801561198e5781602001600182028036833780820191505090505b509050600082602001820190505b6001156119f1578080600190039150507f3031323334353637383961626364656600000000000000000000000000000000600a86061a8153600a85816119e5576119e4612863565b5b0494506000850361199c575b819350505050919050565b600073ffffffffffffffffffffffffffffffffffffffff168273ffffffffffffffffffffffffffffffffffffffff1603611a6e5760006040517f64a0ae92000000000000000000000000000000000000000000000000000000008152600401611a659190611e6d565b60405180910390fd5b6000611a7c83836000610ba3565b9050600073ffffffffffffffffffffffffffffffffffffffff168173ffffffffffffffffffffffffffffffffffffffff1614611af05760006040517f73c6ac6e000000000000000000000000000000000000000000000000000000008152600401611ae79190611e6d565b60405180910390fd5b505050565b600080600090507a184f03e93ff9f4daa797ed6e38ed64bf6a1f0100000000000000008310611b53577a184f03e93ff9f4daa797ed6e38ed64bf6a1f0100000000000000008381611b4957611b48612863565b5b0492506040810190505b6d04ee2d6d415b85acef81000000008310611b90576d04ee2d6d415b85acef81000000008381611b8657611b85612863565b5b0492506020810190505b662386f26fc100008310611bbf57662386f26fc100008381611bb557611bb4612863565b5b0492506010810190505b6305f5e1008310611be8576305f5e1008381611bde57611bdd612863565b5b0492506008810190505b6127108310611c0d576127108381611c0357611c02612863565b5b0492506004810190505b60648310611c305760648381611c2657611c25612863565b5b0492506002810190505b600a8310611c3f576001810190505b80915050919050565b6000604051905090565b600080fd5b600080fd5b60007fffffffff0000000000000000000000000000000000000000000000000000000082169050919050565b611c9181611c5c565b8114611c9c57600080fd5b50565b600081359050611cae81611c88565b92915050565b600060208284031215611cca57611cc9611c52565b5b6000611cd884828501611c9f565b91505092915050565b60008115159050919050565b611cf681611ce1565b82525050565b6000602082019050611d116000830184611ced565b92915050565b600081519050919050565b600082825260208201905092915050565b60005b83811015611d51578082015181840152602081019050611d36565b60008484015250505050565b6000601f19601f8301169050919050565b6000611d7982611d17565b611d838185611d22565b9350611d93818560208601611d33565b611d9c81611d5d565b840191505092915050565b60006020820190508181036000830152611dc18184611d6e565b905092915050565b6000819050919050565b611ddc81611dc9565b8114611de757600080fd5b50565b600081359050611df981611dd3565b92915050565b600060208284031215611e1557611e14611c52565b5b6000611e2384828501611dea565b91505092915050565b600073ffffffffffffffffffffffffffffffffffffffff82169050919050565b6000611e5782611e2c565b9050919050565b611e6781611e4c565b82525050565b6000602082019050611e826000830184611e5e565b92915050565b611e9181611e4c565b8114611e9c57600080fd5b50565b600081359050611eae81611e88565b92915050565b60008060408385031215611ecb57611eca611c52565b5b6000611ed985828601611e9f565b9250506020611eea85828601611dea565b9150509250929050565b600080600060608486031215611f0d57611f0c611c52565b5b6000611f1b86828701611e9f565b9350506020611f2c86828701611e9f565b9250506040611f3d86828701611dea565b9150509250925092565b600060208284031215611f5d57611f5c611c52565b5b6000611f6b84828501611e9f565b91505092915050565b611f7d81611dc9565b82525050565b6000602082019050611f986000830184611f74565b92915050565b611fa781611ce1565b8114611fb257600080fd5b50565b600081359050611fc481611f9e565b92915050565b60008060408385031215611fe157611fe0611c52565b5b6000611fef85828601611e9f565b925050602061200085828601611fb5565b9150509250929050565b600080fd5b600080fd5b7f4e487b7100000000000000000000000000000000000000000000000000000000600052604160045260246000fd5b61204c82611d5d565b810181811067ffffffffffffffff8211171561206b5761206a612014565b5b80604052505050565b600061207e611c48565b905061208a8282612043565b919050565b600067ffffffffffffffff8211156120aa576120a9612014565b5b6120b382611d5d565b9050602081019050919050565b82818337600083830152505050565b60006120e26120dd8461208f565b612074565b9050828152602081018484840111156120fe576120fd61200f565b5b6121098482856120c0565b509392505050565b600082601f8301126121265761212561200a565b5b81356121368482602086016120cf565b91505092915050565b6000806000806080858703121561215957612158611c52565b5b600061216787828801611e9f565b945050602061217887828801611e9f565b935050604061218987828801611dea565b925050606085013567ffffffffffffffff8111156121aa576121a9611c57565b5b6121b687828801612111565b91505092959194509250565b600067ffffffffffffffff8211156121dd576121dc612014565b5b6121e682611d5d565b9050602081019050919050565b6000612206612201846121c2565b612074565b9050828152602081018484840111156122225761222161200f565b5b61222d8482856120c0565b509392505050565b600082601f83011261224a5761224961200a565b5b813561225a8482602086016121f3565b91505092915050565b6000806040838503121561227a57612279611c52565b5b600061228885828601611e9f565b925050602083013567ffffffffffffffff8111156122a9576122a8611c57565b5b6122b585828601612235565b9150509250929050565b600080604083850312156122d6576122d5611c52565b5b60006122e485828601611e9f565b92505060206122f585828601611e9f565b9150509250929050565b7f4e487b7100000000000000000000000000000000000000000000000000000000600052602260045260246000fd5b6000600282049050600182168061234657607f821691505b602082108103612359576123586122ff565b5b50919050565b60006060820190506123746000830186611e5e565b6123816020830185611f74565b61238e6040830184611e5e565b949350505050565b7f496e73756666696369656e74207061796d656e74000000000000000000000000600082015250565b60006123cc601483611d22565b91506123d782612396565b602082019050919050565b600060208201905081810360008301526123fb816123bf565b9050919050565b7f4e487b7100000000000000000000000000000000000000000000000000000000600052601160045260246000fd5b600061243c82611dc9565b91507fffffffffffffffffffffffffffffffffffffffffffffffffffffffffffffffff820361246e5761246d612402565b5b600182019050919050565b600081519050919050565b600082825260208201905092915050565b60006124a082612479565b6124aa8185612484565b93506124ba818560208601611d33565b6124c381611d5d565b840191505092915050565b60006080820190506124e36000830187611e5e565b6124f06020830186611e5e565b6124fd6040830185611f74565b818103606083015261250f8184612495565b905095945050505050565b60008151905061252981611c88565b92915050565b60006020828403121561254557612544611c52565b5b60006125538482850161251a565b91505092915050565b600081905092915050565b600061257282611d17565b61257c818561255c565b935061258c818560208601611d33565b80840191505092915050565b60006125a48285612567565b91506125b08284612567565b91508190509392505050565b60008190508160005260206000209050919050565b60006020601f8301049050919050565b600082821b905092915050565b60006008830261261e7fffffffffffffffffffffffffffffffffffffffffffffffffffffffffffffffff826125e1565b61262886836125e1565b95508019841693508086168417925050509392505050565b6000819050919050565b600061266561266061265b84611dc9565b612640565b611dc9565b9050919050565b6000819050919050565b61267f8361264a565b61269361268b8261266c565b8484546125ee565b825550505050565b600090565b6126a861269b565b6126b3818484612676565b505050565b5b818110156126d7576126cc6000826126a0565b6001810190506126b9565b5050565b601f82111561271c576126ed816125bc565b6126f6846125d1565b81016020851015612705578190505b612719612711856125d1565b8301826126b8565b50505b505050565b600082821c905092915050565b600061273f60001984600802612721565b1980831691505092915050565b6000612758838361272e565b9150826002028217905092915050565b61277182611d17565b67ffffffffffffffff81111561278a57612789612014565b5b612794825461232e565b61279f8282856126db565b600060209050601f8311600181146127d257600084156127c0578287015190505b6127ca858261274c565b865550612832565b601f1984166127e0866125bc565b60005b82811015612808578489015182556001820191506020850194506020810190506127e3565b868310156128255784890151612821601f89168261272e565b8355505b6001600288020188555050505b505050505050565b600060408201905061284f6000830185611e5e565b61285c6020830184611f74565b9392505050565b7f4e487b7100000000000000000000000000000000000000000000000000000000600052601260045260246000fdfea2646970667358221220b3bdc0edadd5b7e77396e09f69c3fe27df46cbda41fcbc91fc5582263bf6bc9d64736f6c63430008140033",
  "linkReferences": {},
  "deployedLinkReferences": {}
}